:020000041000EA
:1000000000B5324B212058609868022188439860DF
:10001000D860186158612E4B002199600221596106
:100020000121F02299502B49196001219960352056
:1000300000F044F80222904214D00621196600F024
:1000400034F8196E01211966002018661A6600F04E
:100050002CF8196E196E196E052000F02FF8012189
:100060000842F9D1002199601B49196000215960AB
:100070001A491B48016001219960EB211966A021F2
:10008000196600F012F800219960164914480160C1
:100090000121996001BC002800D000471248134993
:1000A000086003C880F30888084703B5996A0420EC
:1000B0000142FBD001200142F8D103BD02B5186610
:1000C0001866FFF7F2FF186E186E02BD00000240BE
:1000D000000000180000070000035F00212200005C
:1000E000F4000018222000A00001001008ED00E03C
:1000F00000000000000000000000000074B24E7A12
:1001000000200420F7010010C3010010C5010010F9
:10011000C1010010C1010010C1010010C101001097
:10012000C1010010C1010010C101001055380010BC
:10013000C1010010C1010010B1380010F5380010E5
:10014000CD010010CD010010CD010010CD01001037
:10015000CD010010CD010010CD010010CD01001027
:10016000CD010010CD010010CD010010CD01001017
:10017000CD010010CD010010CD010010CD01001007
:10018000CD010010CD010010CD010010CD010010F7
:10019000CD010010CD010010CD010010CD010010E7
:1001A000CD010010CD010010CD010010CD010010D7
:1001B000CD010010CD010010CD010010CD010010C7
:1001C00000BE00BE00BE00BE00BE00BE00F04BF888
:1001D000103800BEF2EB88711C5000104050001027
:1001E0003402001090A31AE700202149086006C8D5
:1001F00081F3088810471F48006800282FD10DA4FC
:100200000ECC002902D000F012F8F9E71A491B4A77
:10021000002000E001C19142FCD1194988471949E9
:1002200088471949884700BEFDE701C901C29A42C3
:10023000FBD3704740500010C0000020580200203F
:10024000D85100100000042000000420D8510010F4
:1002500000100420001004200000000070470B482C
:1002600001F0BCFA0047EFF30580C0B27047000010
:1002700008ED00E0000000D05802002014CB002060
:10028000B90F00107D030010A51000105756000094
:1002900006005250ABB36053584F00100600525046
:1002A000861C0302684F0010060052505422A29D83
:1002B000704F001005005250DE65F468D8510010F0
:1002C000F8B5C0460448054B10B5834203D0044B33
:1002D000002B00D0984710BD580200205802002083
:1002E0000000000006480749091A8B10C90FC918F9
:1002F00010B5491003D0044B002B00D0984710BD17
:1003000058020020580200200000000010B5074CE1
:100310002378002B09D1FFF7D5FF054B002B02D026
:10032000044800E000BF0123237010BD58030020E3
:1003300000000000F04E0010054B10B5002B03D05C
:100340000449054800E000BFFFF7CCFF10BDC046E0
:10035000000000005C030020F04E001070B5D025B6
:100360008026FA242D06B604A4006E61200002F057
:10037000ABFAAE61200002F0A7FA70BD10B584B0F0
:1003800001F058FC192000F035F8D0248023240611
:100390009B040020636200F02DF8012303AA63622E
:1003A00000230192802205490093D2000448039360
:1003B00001F0A4FD02F0C8F8FEE7C046F04E0010C0
:1003C0005D030010094A830094464022634410B53F
:1003D0001C68C0006240C0241440802252011343B4
:1003E0001C60034B9C466044416010BD04C001404A
:1003F000004001400123D0228340120693629361A2
:10040000094A83009446402263441968C0004A4068
:10041000C02111408022520113431960034B9C46B6
:10042000052360444360704704C001400040014020
:10043000F8B5CE464746914680B5EFF3108772B6C1
:10044000124E3368002BFCD0BFF35F8FCB08C55C26
:100450000724C218280001230C409446E0401A00EB
:100460000240904603420DD1A34062462B431370D5
:10047000BFF35F8F4346336087F310880CBC904610
:100480009946F8BD484600F00FFEC0462C0100D04A
:100490000021044B044ABFF35F8F02C39342FAD199
:1004A0007047C046000100D0800100D0044A107897
:1004B000431CDBB2172B00D9102313707047C046C2
:1004C00080010020024B18688007C00F7047C046AB
:1004D00000C00640F8B5040006200D0000F072FFD1
:1004E000002845D02B4B2C49E3185A425341802217
:1004F000D20394465B421340284A63441360284A5F
:10050000136018008A689043FBD1224B8021E318C6
:100510005A425341234A5B0049000620995200F099
:1005200051FF2900C00001F087F9C30921D14027FC
:100530000122260080256262A36200232C36AD01D1
:1005400035432B60062000F03DFF3900800001F0AC
:1005500073F96023E26A53406E221A4080235B01E4
:1005600033431A60104B236310232B600D3BA364AD
:10057000F8BD0E4A934203D900230D4F0D4AD8E728
:100580007F221040013040089F011A003F180300ED
:10059000CFE7C0460080FCBF00C0004000E0004044
:1005A00000F00040BCC8002001030000FEFF000076
:1005B000C0FF3F00FFFF000083680B4810B5844672
:1005C00061446244090112019A18591854684B6831
:1005D00001209C4201D802D00020C0B210BD126898
:1005E0000B689A42F9D8F7E7FFFFFF0FF8B55746B7
:1005F00045464E46DE46E0B599460CAB19780DAB44
:100600001B78050090469A460768002912D1BE7BE8
:10061000002E45D074003B68A419033C1B195A787E
:100620003100BA73002A00D1FA7300229A705A700E
:100630001A7003E00E004C006418033C2C4B00229F
:100640009C46AB6861449C464346090161440B608B
:100650004B464B600A9B8B600B9BCB603B681B1926
:100660009A705A701A707B7B9B46002B2CD03200FC
:100670005946B8687B6898473A68002817D05B46A7
:1006800058465B005B441419033BA070D118D35C3F
:10069000002B00D063705B460E707B73B34514D0A3
:1006A00030003CBC90469946A246AB46F8BD5B463E
:1006B0005B005B44033BD3189E701119125D002A46
:1006C00000D05A705B460B707E7342464B46287DC5
:1006D00000F0D8F9041E06D05346002B03D1310098
:1006E000286800F02BFC0E9B002BD9D01C70D7E79C
:1006F000FFFFFF0FF0B5DE464E4657464546002346
:10070000E0B58DB00A936B4B8200D3580B9099469D
:1007100000239B464B46079300F064F9079C0600B4
:100720000F006268EFF3108572B61368002BFCD0DF
:1007300022000794BFF35F8F2468637B9946002BE8
:1007400067D092685C4B90464B441B0198444346EB
:100750001A685B6810001900801BB94100295FDD31
:100760000B9800F08FF900230026984600279A4640
:10077000079C6368BFF35F8F5A461A6085F3108841
:100780005346002B08D10028C6D10DB03CBC904682
:100790009946A246AB46F0BD0A9B414618024B461D
:1007A0001843D047089009916268EFF3108572B63C
:1007B0001368002BFCD00794BFF35F8F0899099A48
:1007C000002A48DB114303D0079B1B69002B5DD136
:1007D000079B1B68DA7B002A07D051008A1819682A
:1007E0008C4649466244033A51704A46DA734B4696
:1007F000079A013BD168CA5C0132CA545B46079A2A
:1008000013615368BFF35F8F5A461A6085F31088EF
:1008100082E700230026984600279A460020A7E793
:10082000002901D100289BD10021200000F0E8FA26
:1008300043461E685F689B68079A9A464346DB6892
:100840009846D3684B44013B1B780A931B02034331
:10085000136100208CE72369002BB9D033003C00E2
:100860005B1A94411A002300A74219D89F421BD05B
:100870005946049101210391494602914146019153
:10088000514607980091FFF7B1FEB7E700F0AAF8CC
:10089000089A099B06000F0092197B419942E5D9FD
:1008A00001225242D317E3E79642E1D90122524294
:1008B000D317DDE794C80020FFFFFF0F10B5104CE1
:1008C0006368002B00D010BD23000E4A1021206861
:1008D00000F0B4F9032000F079F8032000F044F9A7
:1008E0000320094900F088F8FFF7E0FD074B9C461C
:1008F000032360442375064B80006060DC60E2E700
:1009000084010020B9050010F506001040000034F5
:1009100094C80020F0B5D6464F464646C0B5EFF322
:1009200005833F22134018001038EFF3108C72B685
:10093000204D2A68002AFCD0BFF35F8F01221100EE
:1009400081401D4C884661631C4917000E788A4619
:100950003100C1400F400A4215D019498200646A33
:1009600051588C4219D3174BD25843469E43534695
:100970001E70BFF35F8F00232B608CF31088002A5A
:1009800006D0904704E0BFF35F8F2F608CF3108890
:100990001CBC90469946A246F0BD0B4A9B0090466F
:1009A00043441A681A60BFF35F8F00232B608CF3F7
:1009B0001088EDE7280100D000400540BAC80020AB
:1009C000A4C8002010C80020D03F054010B5010089
:1009D000024A0348FFF72CFD10BDC046FC4E001034
:1009E000B8C80020034B596A0A00986A596A8A42BB
:1009F000FAD170470040054070B504000D00EFF3D8
:100A0000108672B61A4A1368002BFCD0BFF35F8FB2
:100A1000002D1BD0200000F033FD164981420AD082
:100A2000200000F035FD0121200000F017FD01231A
:100A3000A340114A1360114BA400E550BFF35F8F30
:100A400000220B4B1A6086F3108870BD0B4BA2007E
:100A5000D5500122A2400A4920000B7893430B7025
:100A6000044900F03FFD0021200000F0F7FCE5E71D
:100A7000280100D0150900103860054010C800207A
:100A8000BAC80020F0B54F46D6464646C0B5070066
:100A9000304C616A0D00A66A616AA942FAD18B42A4
:100AA00008D805D001201CBC90469946A246F0BD4E
:100AB000B242F7D9EFF3108972B6274801680029CE
:100AC000FCD0BFF35F8F01252449BD408C460978D7
:100AD000204C0E002E438846F1B28A4661465046AD
:100AE0000870391D1E48890065630A51B9000B5012
:100AF000216A0020294219D0616A0800A66A616A49
:100B00008142FAD18B4219D801D1B24216D8C245DE
:100B10001DD0104B1F201D625D6301230740BB40A9
:100B2000104A1E381360634642461A70BFF35F8F47
:100B30000022094B1A6089F31088B4E70020BFF344
:100B40005F8F0022044B1A6089F31088ABE7012005
:100B5000ECE7C04600400540280100D0BAC800209C
:100B6000A4C8002080E200E010B5EFF3108472B654
:100B70000A490B68002BFCD0BFF35F8F0123834031
:100B8000074A0848136202789A430270BFF35F8FE6
:100B900000230B6084F3108810BDC046280100D0EC
:100BA00000400540BAC80020024B9C4661448900C1
:100BB000016070474000003410B50400FFF776FC78
:100BC00001002000FFF7F0FFFF232371BFF35F8FC9
:100BD00010BDC04670B505000E001400002924D0D9
:100BE000002A24D080686B689847296800280ED0B6
:100BF00063001B197200033B9219CB18033A9E70D5
:100C000088188A5C002A14D1047030000EE073004A
:100C10009B196200033B1219CB18033A9C70881889
:100C20008A5C002A00D05A700670200070BD08004F
:100C3000FCE75A7004703000F8E7C04630B58360B6
:100C40000023CCB243730133047342608373C473D3
:100C50000D000068012C06D9421C0133DBB2137071
:100C600003329C42F9D1FF2129404B00591800233F
:100C700040180338437030BDF8B5CE4647460600ED
:100C80000C0080B5002907D04D0003686D18033DA6
:100C90005A195778002F04D120000CBC9046994671
:100CA000F8BD7900C9190339884643445978894603
:100CB00000215970517073683A002100806898478C
:100CC0003368002814D042469A18947059195B5D15
:100CD000002B00D053700F70270049463000FFF7FB
:100CE000CBFF390002003000FFF774FF0400D3E7A8
:100CF000424641465D19AF709A185B5C002B00D0EC
:100D00006B701470E9E7C046F0B557464546DE46BD
:100D10004E46E0B50D006B0001685B19DF1E040054
:100D2000C85D83B00192CA1900284CD043001B183B
:100D3000033BCB185E78B446002E16D1019E002EE0
:100D40003ED0E67B002E04D073009B19CB18033BEA
:100D50005D70E57300282FD10023537003B03CBCB5
:100D600090469946A246AB46F0BD72006244033AF3
:100D700089184A78904600224A7091465A700100BC
:100D800032002000FFF726FF43468246002B07D0A3
:100D90005B0021684344033BCB185A78002A16D1E4
:100DA000424651462000FFF715FF2168019BCA19F2
:100DB000002BC6D10028CFD043001B18033BCB1813
:100DC00000219970C8E7019B002BBAD1C4E75000FD
:100DD0008018033809184878834648464870587088
:100DE00041462000FFF7F6FE594680462000FFF7F7
:100DF00043FF414602002000FFF7ECFE8046CFE7AC
:100E0000F0B54E464546DE465746E0B5467B040003
:100E100075000068AD19033D83B00191415D421931
:100E200000294ED04B005B18033BC3185F78BC46CB
:100E3000002F18D1019D002D40D0E57B002D04D05E
:100E40006B005B19C318033B5E70E673002931D158
:100E5000002330005370617303B03CBC9046994648
:100E6000A246AB46F0BD7A006244033A801842784D
:100E700093460022427091465A7020003A00FFF7D4
:100E8000A9FE5B468046002B07D05B0021685B44CF
:100E9000033BCB185A78002A17D15A464146200006
:100EA000FFF798FE019B010020684219002BC4D176
:100EB0000029CDD04B005B18033BC318002098706D
:100EC000C6E7019B002BB8D1C2E750008018033859
:100ED000091848788246484648705870594620009C
:100EE000FFF778FE53468346002B07D05B0021684E
:100EF0005344033BCB185A78002A06D15946524630
:100F00002000FFF767FE8346C7E7500080180338CC
:100F1000091848464F784870587051462000FFF72E
:100F200059FE390081462000FFF7A6FE494602001F
:100F30002000FFF74FFE8246E0E7C04670B5040090
:100F400000292CD0437B8B422ED0056848004018E6
:100F5000033828188278002A21D053009B18033BBD
:100F6000EA5CEE188A4202D11BE0002A08D0530046
:100F70009B18033BEB185A788A42F6D142785A7094
:100F800000230122837043702000FFF7BDFE617BC8
:100F900002002000FFF71EFE6073012000E0002029
:100FA00070BD43783370EBE701221900FFF7ACFE08
:100FB00060730120F4E7C0462B4B2C4A70B51A60D1
:100FC0002B4A2C4B2C491A6010008B689843FBD19C
:100FD0002A4C2B4B9C4209D2013B1D1BAD0801350D
:100FE000AD002D1908CC9847AC42FBD100F07AF83F
:100FF000244A204B1A60204A9368DB018033FBD1DE
:101000004022214B214C9A675A671A67DA66204BB7
:101010009C420BD2013B1D1BED080135ED002D1943
:1010200020000834FFF7C8FDAC42F9D1194C1A4D25
:10103000A168C022280000F0EBFCA560FFF728FAA9
:1010400000F088FBFFF73AFC144C154B9C4209D288
:10105000013B1D1BAD080135AD002D1908CC98478B
:10106000A542FBD170BDC04600E00040BFCDFFFFF0
:10107000FE7F3C0000F0004000C000404402002021
:1010800054020020FFFFFF0100F001403C0200205D
:101090004402002000ED00E0000000205402002087
:1010A0005802002000BEFDE70FB400B5084883B029
:1010B00000F084FD049B002B07D005A918000191C6
:1010C00000F06CFB034800F079FD00BEFDE7C04670
:1010D000204F0010304F001010B50148FFF7E4FF1B
:1010E000344F001030B50C2083B000F071F9FFF7D9
:1010F000E9F900280ED09A4B9A4A1A605A609A6011
:10110000DA601A615A619A61DA611A62964A5A6221
:1011100003B030BD954CA06700F062F90122944BFA
:101120001A60636C012BFCD10322924B1A608F4A28
:10113000936B012BFCD1C0228F4B92011A608F4B15
:101140008F491A6010008B689843031EFAD102245D
:1011500001218C4A8C480633009400F055F9052390
:101160008A4A01218A48009400F04EF9894B5A6856
:10117000FF2A02D8802252005A608022784C7D4B90
:1011800021691201834D1A60002905D0606900F0C1
:1011900053FB01300138FDD1E0217E4B02201A685B
:1011A0001140802252012A431160196848400321EE
:1011B0000140116004219A681142FCD080228021F4
:1011C00092012A4309011160802252005A60724B39
:1011D0002361724B5968FF2900D85A6003226F4877
:1011E000634B01211A60020093681942FCD0E0258C
:1011F00013681D4080235B0103431D6012684A4051
:101200000321114019600221644A93681942FCD0FD
:10121000802380219B010343090119608021604BD9
:101220004900516063615F4B5A68FF2A00D85960DA
:1012300080225D4BE16912015A4D1A60002905D0E8
:10124000606900F0F9FA01300138FDD1E02255491A
:101250000B681A4080235B012B431A608023802295
:101260009B012B4312011A6080223E4B52004A60C0
:10127000E3614E4B5968FF2900D85A6080224C4BDD
:10128000216A1201494D1A60002905D0606900F0F9
:10129000D3FA01300138FDD1E02244490B681A40ED
:1012A00080235B012B431A60802380229B012B4308
:1012B00012011A60802380225B004B60294BD2020E
:1012C00023623C4B5968914200D25A6080223A4BCB
:1012D000616A1201374D1A60002905D0606900F07B
:1012E000ABFA01300138FDD1E02232490B681A40D7
:1012F00080235B012B431A60802380229B012B43B8
:1013000012011A608023DB024B60174B63622B4B88
:101310005A68FF2A02D8802252005A608022284B45
:10132000A1691201254D1A60002905D0606900F0FD
:1013300083FA01300138FDD1E02220490B681A40C0
:1013400080235B012B431A60802380229B012B4367
:1013500012011A6080235B004B60114BA361D7E63A
:1013600020C80020006CDC021BB700000080004099
:101370003CB0004030B0004000E0004000F00040D1
:1013800000C00040002F68590080024000389C1CBB
:1013900000C0024030800040001BB7003C8000408D
:1013A000405973075480004054B0004060800040B2
:1013B00060B000406C8000406CB00040488000404D
:1013C00048B00040014B8000C058704720C8002042
:1013D0008023024A9B000343D3627047008005408C
:1013E000AA23064A1B0113602F230549D360054B2E
:1013F00019605368002BFCDA7047C0460040024079
:1014000000B0FA0000600240F8B51E0001235B4204
:10141000436000230400836001600C20170000F08B
:101420000BFA4101091A8D01691AC90009188901CD
:10143000380000F001FAC021231D8901194321233E
:10144000A0600B602268002AFCDA069B36041B03AE
:101450001E430823E6600B60F8BDC04601238340AD
:10146000002904D0034A1360034A13607047034AFB
:101470001360FBE780E200E000E100E080E100E0D3
:10148000024B10309B688000C058704700ED00E0B0
:1014900070B50D00EFF3108672B60F4A1368002B7B
:1014A000FCD0BFF35F8F0D4B10309B6884001B593D
:1014B0000B4A934203D09D4201D0FFF70DFE074B2C
:1014C0009B681D51BFF35F8FBFF35F8F0022024BFC
:1014D0001A6086F3108870BD240100D000ED00E092
:1014E000CD010010F0B5DE4657464E464546E0B504
:1014F0000C0083B0EFF3108A72B65B4A1368002BBE
:10150000FCD0BFF35F8F1022914681444A46574B6F
:1015100096009B689D59564B98469D4205D0A54222
:1015200016D0544FEB1B2F2B14D9504B9B689D5159
:10153000BFF35F8FBFF35F8F00224B4B1A608AF3BC
:10154000108803B03CBC90469946A246AB46F0BD1D
:101550001D00EAE7012383409B465A46464B1B6821
:101560001A4000925A46454B1A60BFF35F8FFEF750
:101570007AFE0190002803D0814501D0FFF7ACFD31
:1015800001232A009A431300DB1B5B414249594364
:10159000090D93689C4208D15BE043001B189B0037
:1015A000FB189868A04211D01A0006201056002897
:1015B000F3DA009B002B05D05A46314B1A602E4BB4
:1015C0001A60B2E75A462D4B1A60AEE7062018564D
:1015D000002822DB4200111889007C188846A16887
:1015E0009960E179D971062161569971A1797F29B4
:1015F0001FD8A488F91A6405241544440919E02465
:101600000905490D24022143998012181D4B9200AF
:10161000BF181A781870BA71CBE7019800280BD15F
:10162000FF30907118489080164A107811709871A8
:10163000BFE7BD210902E7E7144A1549D21A083A63
:101640005002400D01439980124952080A43DA8042
:10165000AFE70620105613000028BBDA019A002AD3
:10166000EAD14546E0E7C046240100D000ED00E0A5
:10167000CD010010AC01002000E100E080E100E0BD
:1016800080E200E0B9C8002000BDFFFFE6010020B5
:1016900000F0FFFF00F8FFFFAAAA0000F8B501253F
:1016A00004000543FEF7DFFD0200EFF3108672B67B
:1016B00021490B68002BFCD0BFF35F8F1F4920002E
:1016C000401A4041224B43431B0D1D48920087683E
:1016D0005BB2BF58AF421CD006228A569A421CD039
:1016E00012228A569A4222D01E228A569A4220D02C
:1016F0002A228A5603209A4210D0124A1178137077
:10170000A171BFF35F8F00220B4B1A6086F3108824
:10171000F8BD81680C488850EFE70020420012189D
:1017200092008918FF228A71084A8A80E5E7012021
:10173000F4E70220F2E7C046240100D0AC0100200B
:1017400000ED00E0B9C80020CD01001000BDFFFF92
:10175000AAAA0000F0B500220324FF27802620005B
:101760003D00094B11009C461040C0008540A1433C
:1017700061440B680132AB43350085402B430B605D
:10178000202AECD1F0BDC04600E400E010B50028EE
:1017900000D110BD00F004FAFBE7C04610B5094ABD
:1017A0000300146884B0002C08D001220091064880
:1017B000524203A9A047012004B010BD00F0FEF979
:1017C0000020F9E790C800208D170010014804217F
:1017D000014B184700020020FD170010142310B51C
:1017E0000100188804331B88984710BD162310B5D4
:1017F0000100188802331B88984710BDF0B5C64613
:1018000000B5002916D01423040001259846182796
:10181000890046184346216818883B88984701C4C8
:10182000431E984140420540A642F3D1280004BC23
:101830009046F0BD0125F9E7134A936F9B0813D238
:1018400010665166002905D0FFE7FFE7FFE7516FFB
:10185000106F704704B5002801D00020C04303F08A
:101860002FFB002104BDC046936F5B08FDD3F0B58C
:10187000946ED56E576F166FFFF7E2FF9466D566CC
:1018800057671667F0BD0000000000D0132370B545
:101890001D78012D10D00BDD2448FFF7A7FF244C45
:1018A00001008022200000F0B3F8022D01D070BDAD
:1018B0001F4C204AA264FAE72E001D4C1D4AA308C3
:1018C0005B421E401D422FD0330022602020B10019
:1018D0006118801B0A604A608A60CA600A614A61B6
:1018E0008A61CA610A624A628A62CA620A634A6398
:1018F0008A63CA630A644A648A64CA640A654A6578
:101900008A65CA650A664A668A66CA660A674A6757
:101910004008102803D18A67CA67A264C7E71E334C
:101920009B00E250A264C2E70023CFE753440000CB
:10193000C0C800203919001007B5604601880A0A9E
:101940000230DF2AFAD1C9B2820804D30288408863
:101950000004104300E00068014A5050039007BDA6
:10196000C0C80020132310B512481C78FFF73EFFB3
:101970000100012C0AD003DD80220F4800F048F856
:101980000E48FFF72BFF0E4B186010BD0A4C542277
:10199000200000F03DF80B4B6365A365E36523660B
:1019A0006366A366E36623676367A367E3672362EF
:1019B000E361E5E753460000C0C900204C33000056
:1019C000C0CA0020C919001007B5604601880A0A7C
:1019D0000230DF2AFAD1C9B2820804D302884088D3
:1019E0000004104300E00068014A5050039007BD16
:1019F000C0C9002001480421014B184710020020F3
:101A0000FD170010014B1B68184700001002002052
:101A1000014B5B681847000010020020F8B54746EC
:101A2000CE460D0080B516000700002A20DD4B1EB3
:101A300098461A4B002400209946002C2BD0434690
:101A40001B5D0D3B5A425341DBB22A5D0A2A13D07B
:101A50000134A642F1DC864203DD311A3B682818C6
:101A60009847AD19013D2B780D3B5A4253413B74C9
:101A70000CBC90469946F8BD002BE9D1A04203DA90
:101A8000211A3B6828189847484602213B680134D0
:101A900098472000DDE73B7CD7E7C046A04F001009
:101AA000F0B557464546DE464E46D023E0B51B0608
:101AB0001C68374B83B007000D00180001A9904641
:101AC0009A4603F005FA8146002807D1019B9C4203
:101AD00004D0504603F004FA012399466B1C03D14D
:101AE000380003F0AFF905002A4B1C68002C2FD0FA
:101AF0000A23294E9B4602E0E468002C28D0226885
:101B0000002AF9D03368002B01D0A342F4D1637CC2
:101B1000002B2AD02A0039002000FFF77FFF434620
:101B2000002BE9D06B465A461A71637C002B20D0FB
:101B3000237C002B26D00121236801A898476B46FF
:101B40001B790D3B5A4253412374E468002CD6D1D3
:101B50004B46002B12D1681E8541E8B203B03CBC55
:101B600090469946A246AB46F0BD29003800904702
:101B7000D5E70121236801A89847BDE7504603F047
:101B800097F9E8E70221054823689847D7E7C04658
:101B90003C02002088C800208CC80020A04F001004
:101BA00010B582B06B4604000022D81D01210470DC
:101BB000FFF776FF200002B010BDC04670B50400EC
:101BC00003F040F90122010005002000FFF768FF43
:101BD000084B1C68002C06D06368002B05D0984782
:101BE000E468002CF8D1280070BDE468002CF3D123
:101BF000F9E7C04688C800200D4A1368002B13D0AF
:101C0000834202D109E0984208D01A00DB68002B19
:101C1000F9D1002900D0D06070471A000029FBD10B
:101C2000DB68D360C160F7E70029F5D01060F3E707
:101C300088C8002010B500F043F810BDF0B50D1EA7
:101C400015DD0E4B0D271A680D4B4519D318594257
:101C50004B410C495B005E5E20210478A64207D010
:101C600093691942FCD101301460A842F5D1F0BD4E
:101C700093691942FCD11760F2E7C046B4C800204E
:101C80000080FCBFBCC8002030B50500002912DD73
:101C900000201024094B013D1A6893691C4208D1A9
:101CA000013093691C42FCD113682B548142F4D15A
:101CB00030BD0028FCD103204042F9E7B4C8002021
:101CC000E12110B50B4B0C481B780C4B49021B78DB
:101CD0000B4B1860FEF7FEFB02210020FEF772FBA3
:101CE00002210120FEF76EFB01210648FFF784FF69
:101CF00010BDC04638500010004003403C5000105A
:101D0000B4C800202002002070B5104C14E001F08F
:101D1000B1FD2369DD68281D01F094FFA369013B33
:101D2000A3612368013B236001F0B0FD286B01F043
:101D3000CDFE280001F0CAFE2368002BE7D1E3693D
:101D4000012BF9D901F08AFDF6E7C04674030020A3
:101D5000F8B504001B4D0E00EF6E286F043001F043
:101D600071FF631C16D02B6F3C195C60A7420AD828
:101D7000154EF068296F043101F04CFF3369A3421E
:101D800000D93461F8BD104B9868296F043101F017
:101D900041FFF7E7002EE6D02A6FAB6F996893609A
:101DA0002A6FD1602A6F996804324A602A6F043220
:101DB0009A602A002B6F74325A616B6F01336B6724
:101DC000E0E7C04674030020F4030020494BF0B55F
:101DD000DE469B464E46574645465A46E0B5DE6EC1
:101DE00083B0731C44490193D366002B0CD1CB689C
:101DF0008A68CA608B604B6901334B61CB681B6892
:101E0000002B6DD1013B0B6100220B699046019ABA
:101E10009A4258D3CB681B68002B51D000239A46B6
:101E20001C339C46DC4438E0504614685861013C41
:101E300014609A6A002A0ED0DC69186AA0601F6AD2
:101E400050687C601C001834A0424ED05046146884
:101E50009862013C1460DC6A8A69944200D98C6102
:101E600058464D46A200121992008718386A6244FB
:101E700086689860DE608668756085605A61FB6977
:101E80000133FB615B461B6FDB6A9C4201D301237C
:101E90009846CB681B68002B12D0CB680198DB6892
:101EA000DB685A68904222D3181D81465A699F68A0
:101EB000DC685068BC6067604845B5D15460B3E7E2
:101EC00001235B420B61CB69002B01D001239846B3
:101ED000404603B03CBC90469946A246AB46F0BD96
:101EE000CB68DB681B680B618EE75760AEE70A6161
:101EF000E9E7C04674030020F4030020F0B54F4624
:101F00004646D64698469300C0B5070018000D0017
:101F1000994601F037FD061E00D1D2E0682001F09D
:101F200031FD041E00D1DEE00663002D00D1E7E0A4
:101F300034232A78C2542B78002B56D035236A7864
:101F4000C2546B78002B50D03623AA78C254AB7899
:101F5000002B4AD03723EA78C254EB78002B44D0C8
:101F600038232A79C2542B79002B3ED039236A7941
:101F7000C2546B79002B38D03A23AA79C254AB797A
:101F8000002B32D03B23EA79C254EB79002B2CD0C2
:101F90003C232A7AC2542B7A002B26D03D236A7A1E
:101FA000C2546B7A002B20D03E23AA7AC254AB7A5B
:101FB000002B1AD03F23EA7AC254EB7A002B14D0BC
:101FC00040232A7BC2542B7B002B0ED041236A7BFB
:101FD000C2546B7B002B08D04223AA7BC254AB7B3C
:101FE000002B02D04323EA7BC25443230022E25455
:101FF000089B9A46032B6CD85346251DE3622800A4
:1020000001F0F8FD2000183001F0F4FD52460423E1
:1020100020009B1AA36114220021246164624430D1
:10202000FFF7F0FC20000C2200215830FFF7EAFCFB
:102030002000032200216430FFF7E4FC4846072318
:102040000438301898434246390001F0F3FB099BED
:102050002060002B00D01C6001F00CFC414EB369E5
:102060000133B361336F002B43D03F4FFB6D002B27
:1020700032D0E26A3B6E01333B66BB69934200D2C9
:10208000BA6193009B189B00F1180A6A9068A260DD
:10209000E06090684560956032001C32D31863613F
:1020A000CB6901250133CB6101F0F0FBFB6D002B07
:1020B00009D0336FDA6AE36A9A4204D201F0CEFBA8
:1020C00001E001256D4228001CBC90469946A246BD
:1020D000F0BD03239A468FE7336FE26ADB6A9342CF
:1020E000C8D83467C6E70125300001F0EFFC6D4227
:1020F000E9E73467B369012B05D0E26A1A4FB9E703
:102100003423C55474E730001C3001F067FD300003
:10211000303001F063FD3000443001F05FFD3000ED
:10212000583001F05BFD202399460F4FB9444846D3
:1021300001F054FD34239846B844404601F04EFD6A
:102140003800483001F04AFD301D01F047FD3000F5
:10215000743001F043FD4B46FB604346E26ABB60CE
:1021600088E7C04674030020F4030020F8B504009B
:1021700001F080FB1F4E002C36D0271D380001F0E7
:1021800061FDA36A002B03D02000183001F05AFD36
:10219000194D2B6E01332B66336FA3421CD0B369EC
:1021A000206B013BB36101F091FC200001F08EFC3B
:1021B000EB681B68002B0CD0EB68DB681B682B619D
:1021C00001F064FBEB6D002B02D0336FA3420DD006
:1021D000F8BD013B2B61F3E73900301D01F00EFD26
:1021E000336801333360EBE7346FC6E701F036FB49
:1021F000EEE7C04674030020F403002010B504008D
:1022000001F038FB002C04D0E46A01F03FFB200011
:1022100010BD014B1C6FF7E77403002010B50400DC
:1022200001F03EFB002C04D0E46A01F03DFB2000ED
:1022300010BD014B1C6FF7E774030020F8B50400D4
:102240000D00032900D9032501F014FB002C28D030
:10225000E36A9D4219D0234E1AD8376F3F1B7A424A
:102260005741A269E562002A02DB04214D1BA561EA
:1022700031009A00D3181C319B006269CB189A4236
:1022800012D0002F01D001F0E9FA01F0FFFAF8BDF9
:10229000326FA24224D00027326FD26A95427F412A
:1022A000DFE7104B1C6FD3E7251D280001F0CAFCA7
:1022B0000D4BE26A99698A4200D99A6193009B1892
:1022C0009B00F1180A6A1C369068F618E060CB692A
:1022D00090680133A260456095606661CB61D0E78C
:1022E0000027BEE774030020F403002070B504004B
:1022F00001F0C0FA474D002C47D0261D300001F0F8
:10230000A1FCA36A002B03D02000183001F09AFC36
:1023100028003100743001F071FC6423E25C012A72
:1023200001D10022E2546523E25C012A01D100229E
:10233000E2546623E25C012A01D10022E25401F05A
:10234000A5FA354EF36D002B03D12B6FA3420FD0AE
:1023500070BD01F08FFAF3681B68002B17D0F3688B
:10236000DB681B68336101F091FA2B6FA342EFD158
:10237000F36D002B10D1696FAA6991420AD0736E78
:10238000002B0CD00123F361E2E72C6FB5E7013B92
:102390003361E8E72B67DBE701F060FAD8E7F36128
:1023A000B2699300991889006918C96900291DD17B
:1023B000501E8300191889006918C969002926D19F
:1023C000901E8300191889006918C96900291ED157
:1023D000D01E8300191889006918C969002916D10F
:1023E000043A9300991889006918C9699B189B00E1
:1023F000E8180300016A243349680162994203D056
:10240000CB682B67B261A3E749680162F8E7020075
:10241000ECE7C04674030020F4030020F8B51D4D1E
:1024200004002B6F83420AD0002808D001F022FA62
:102430002B00626974339A4202D001F027FAF8BD8A
:10244000154EA36A320048329342F6D0002BF4D1E5
:10245000271D380001F0F6FBE26AB3699A4200D901
:10246000B26193009B189B00E818016A8E68A16016
:10247000E6608E6877608F6029001C31CB1863613D
:10248000C3690133C3612B6FDB6A9A42D5D301F074
:10249000E5F9D2E774030020F4030020F8B5CE4636
:1024A000474680B5040001F0FBF9254E6269330010
:1024B0007433050000279A4207D0280001F0F4F990
:1024C00038000CBC90469946F8BD1E4AA36A10001D
:1024D000483090468342F0D0002BEED1536E002B53
:1024E00028D1336FE26ADB6A9A4203D30123424662
:1024F0000137D361231D1800994601F0A3FB434621
:10250000E26A9B699A4201D943469A6193009B18FB
:102510009B00F1189C464B460A6A1C369068A260E4
:10252000E0609068664443609360CB696661013304
:10253000CB61C2E72100183101F060FBBDE7C04666
:1025400074030020F4030020F8B58020CE464746EF
:10255000C00080B501F016FA051E75D0682001F0A4
:1025600011FA041E00D175E0594B38224363002351
:102570000563071D83540B328354C362380001F096
:1025800039FB2000183001F035FB04232000A36143
:1025900014220021246164624430FFF733FA2000E2
:1025A0000C2200215830FFF72DFA200003220021D1
:1025B0006430FFF727FAFF239B00E8180723002267
:1025C0009843444901F036F9434E2060B46601F067
:1025D00051F9424DAB690133AB612B6F002B44D0F5
:1025E000F36D002B3AD0E26A336E01333366B36980
:1025F000934200D2B26193009B189B00E9180A6ACB
:102600009068A260E0609068476097602A001C3282
:10261000D3186361CB690133CB6101F037F9F36DF6
:10262000002B04D02B6FDA6AE36A9A424DD300F094
:10263000DBFF012808D172B601235B42336100231E
:10264000F065EB6601F07CF9254B1B680CBC9046ED
:102650009946F8BD280001F039FAF5E72B6FE26AD8
:10266000DB6A9342C0D82C67BEE72C67AB69012BAD
:10267000B9D128001C3001F0B1FA2800303001F047
:10268000ADFA2800443001F0A9FA2800583001F0D2
:10269000A5FA20239946B144484601F09FFA342315
:1026A0009846B044404601F099FA3000483001F0B5
:1026B00095FA281D01F092FA2800743001F08EFA84
:1026C0004B46F3604346B3608DE701F0C7F8AEE7D1
:1026D00049444C45091D0010F403002074030020F8
:1026E0003402002010B572B60022024BDA6501F008
:1026F000B3F810BDF4030020024A536E0133536651
:102700007047C046F4030020F0B5D6464F46464613
:10271000C0B501F0AFF8474C636E013B6366636E72
:10272000002B6CD1444B9A469B69002B67D0A36C5D
:10273000002B4AD000239C461C3399461B3B9846ED
:10274000D144636DDB68D8691E6A9A6A8660196A2B
:10275000486019005068183188425FD0614699621C
:102760001168013911605A699868D9681F1D816024
:1027700048605068B8424FD0116801391160A269B1
:10278000D96A914200D9A16150468A00521892003C
:102790008618306A4A4485689860DD6085686F6095
:1027A00087605A61F3690133F36153461B6FDB6A3B
:1027B00099422DD34346E361A36C002BC1D1E3685A
:1027C0001B68002B2CD1013B2361E56E002D13D03B
:1027D000012607E0FFF7FAFA002800D0E661013D84
:1027E000002D08D0636E002BF4D0E36E013D013361
:1027F000E366002DF6D1E566E369002B15D10024D0
:1028000001F044F820001CBC90469946A246F0BD59
:10281000A36C002B95D1D2E75160ADE756609DE7E0
:10282000E368DB681B682361CFE701F017F8012438
:10283000E6E7C046F403002074030020F0B5C64666
:102840001F4F00B57B6E01337B661E4E0268F56E2E
:1028500054180460AA420AD9A2420AD80025FFF7F8
:1028600053FF00281DD0280004BC9046F0BDA242B2
:1028700001D8A542F2D2F36E306F984604305D1B4A
:1028800001F0E0F9336F64195C60A0450CD9B868B9
:10289000316F0125043101F0BDF9FFF735FF002844
:1028A000E1D100F0DBFFDEE7F868316F012504318C
:1028B00001F0B0F93B699C42D1D23C61CFE7C04600
:1028C000F403002074030020F8B5041E17D0124E44
:1028D000736E01337366114DEF6E286FE419043087
:1028E00001F0B0F92B6F5C60A7420BD9B068296F7B
:1028F000043101F08FF9FFF707FF002801D100F044
:10290000ADFFF8BDF068296F043101F083F9336938
:102910009C42F0D23461EEE7F403002074030020FF
:10292000014BD86E7047C04674030020014BD86E2F
:102930007047C04674030020014B98697047C04639
:1029400074030020002801D034307047014B186F09
:10295000FAE7C04674030020054B10B5596E02001B
:1029600001315966D86E8018D866FFF7CDFE10BDCC
:10297000F4030020064B10B55A6E002A02D1FFF76F
:1029800025FA10BDDA6E00200132DA66F9E7C0469A
:10299000F4030020214930B54B6E002B02D00123F7
:1029A000CB6130BDCB618A691D4893009C18A4009F
:1029B0000419E469002C1FD1551EAB005C19A4005A
:1029C0000419E469002C16D1951EAB005C19A40013
:1029D0000419E469002C0ED1D51EAB005C19A400CB
:1029E0000419E469002C06D1043A93009C18A40051
:1029F0000419E46900E02A009B189B00C5182B000D
:102A00002C6A243364682C629C4203D0E368036719
:102A10008A61C6E764682C62F8E7C046F4030020C8
:102A20007403002070B50D001B4C216F183101F0AC
:102A3000F1F8E66E206F043001F004F96B1C16D03B
:102A4000236FAD195D60AE4206D9144B9868216FB3
:102A5000043101F0DFF870BD104EF068216F0431D1
:102A600001F0D8F833699D42F5D23561F3E7226F62
:102A7000A36F99689360226FD160226F99680432C6
:102A80004A60226F04329A602200236F74325A61C6
:102A9000636F01336367DEE774030020F4030020F3
:102AA000802370B51500254C1B06226F0B439361E4
:102AB0004368226F9968D361226F1162226F99680F
:102AC00018324A60226F18329A60236F9862036846
:102AD00001330360E66E206F043001F0B3F86B1C25
:102AE00016D0236FAD195D60AE4206D9144B9868BD
:102AF000216F043101F08EF870BD114EF068216F26
:102B0000043101F087F833699D42F5D23561F3E76E
:102B1000226FA36F99689360226FD160226F9968CA
:102B200004324A60226F04329A602200236F7432AA
:102B30005A61636F01336367DEE7C04674030020A8
:102B4000F403002070B5264C43680D00216F9E6889
:102B5000CB61216F0E62216F9E6818317160216F09
:102B600018319960236F9862036801330360002A6B
:102B700019D0E36E206F043001F064F8226FA36F68
:102B800099689360226FD160226F996804324A601D
:102B9000226F04329A602200236F74325A61636F8D
:102BA0000133636770BDE66E206FAD19043001F02C
:102BB00049F8236F5D60AE420AD80A4EF068216F73
:102BC000043101F027F833699D42EBD23561E9E722
:102BD000044B9868216F043101F01CF8E2E7C0460D
:102BE00074030020F4030020C368F0B5DB68D869E3
:102BF000196A9A6A816048601800546818308442E3
:102C000049D000219962116801391160274A516E3B
:102C100000292ED19868DC6859698460DC681F1D22
:102C200060604868B84238D0086801380860906928
:102C3000D96A81422DD888001D4C40188000261882
:102C4000356A8446A8689D60D860A8684760AF6010
:102C500025001C35280060445861F3690133F36195
:102C6000236F0020DB6A8B4202D201230130D36143
:102C7000F0BDD16C8C68D9611C628C686060886022
:102C8000110048319962916C094C01319164D96A03
:102C9000E6E79161CFE75160B3E708684C6001381F
:102CA00008609069D96A8142C5D9F2E7F40300202F
:102CB0007403002080231B06F0B50B438468416831
:102CC00002690360C3688C608468616051688142F6
:102CD00034D0002101611168D86801391160996808
:102CE0005A698860D8681F1D41605168B94227D071
:102CF000116801391160134AD96A94469269914268
:102D000001D9624691618A000F4C52189200A518B1
:102D1000286A86689860DE60866877608760200031
:102D20001C3082185A61EB690133EB61236FDB6A57
:102D3000994202D901236246D361F0BD5460C8E7CD
:102D40005060D5E7F40300207403002010B50400A0
:102D500000F090FD044B5B692360044BDB6E636005
:102D600000F094FD10BDC046F40300207403002061
:102D7000034B5B690360034BDB6E43607047C046E7
:102D8000F403002074030020F8B50D00040000F0E7
:102D900071FD124A2B68D16E581C1CD0104E606811
:102DA000B44677692668BE4208D0884206D8002318
:102DB00001242B6000F06AFD2000F8BD0F1ABB4211
:102DC000F5D95B1A1B182B6063465B692360D36ED1
:102DD00063600024EEE70024ECE7C04674030020A3
:102DE000F40300200122014BDA617047F403002054
:102DF000042905DC002804D01031890041184A60FC
:102E00007047014B186FF7E774030020042909DCB1
:102E1000002804D010318900411848687047024BDF
:102E2000186FF7E70020F9E774030020014B186FD3
:102E30007047C04674030020044B0120DA6D002A5D
:102E400003D0586E4342584140007047F4030020BD
:102E5000044B1A6F196F90691A6F0423C96A5B1AC1
:102E60009361704774030020F0B50400C646250046
:102E700000B51700884600F0FDFC194E1635336F7B
:102E8000AA00D358002B06D10122336F1B196433DB
:102E90001A70002F1DD100F0F9FC00F0EBFC336F2D
:102EA000AD00EF58002F05D04346002B0DD0002277
:102EB000336FEA500023306F00196430037000F064
:102EC000E5FC380004BC9046F0BD336F7A1EEA5032
:102ED000F0E701213800FEF73BFF00F0BFFCDAE726
:102EE00074030020F0B5C646040000B51F008846F4
:102EF000160000F0BFFC214D286F001964300378E4
:102F0000022B0ED041462B6FA2009B189A6D8A436C
:102F10009A6501222B6F1B1964331A70069B002BD4
:102F200024D100F0B3FC00F0A5FC002F05D0230055
:102F30002A6F16339B009B583B602B6F00271B1991
:102F400064331B78022B06D12B6FA2009B189A6D5D
:102F50000137B2439A650023286F04196434237043
:102F600000F094FC380004BC9046F0BD012118002C
:102F7000FEF7EEFE00F072FCD3E7C04674030020BB
:102F8000F0B5C64600B5069D06000C0090461F0031
:102F900000F070FC002D04D0230016339B009B59D9
:102FA0002B600223311964310D780B70EDB2032FC1
:102FB00016D011D8012F48D0022F04D1A400341903
:102FC000A36D0133A365012D10D0012400F05EFC38
:102FD000200004BC9046F0BD042FF4D1022D32D065
:102FE00043461634A400A351012DEED1B268F16816
:102FF00073699160F168351D4A605A68AA422DD004
:103000001A68013A1A60164BF26A99698A4200D925
:103010009A61930013489B189B00C418216A8F681B
:10302000B160F7608F687D608D6001001C31CB1846
:103030007361E3690133E361036FDB6A9A42C4D9C8
:1030400000F00CFCC1E70024C0E74746A400341997
:10305000A26D1743A765012DB7D1C7E75960CFE728
:10306000F403002074030020F8B54746CE4680B52F
:10307000089F06000C0090461D0000F011FC002F78
:1030800004D0230016339B009B593B600222331966
:1030900064331F781A70FFB2032D17D012D8012D98
:1030A0003CD0022D04D1A4003419A36D0133A365D3
:1030B000012F11D0012400F0F7FB20000CBC90463A
:1030C0009946F8BD042DF3D1022F5ED04346163445
:1030D000A400A351012FEDD12E4B5A6E002A26D009
:1030E000DA6C9168F2613162310094681831616084
:1030F00091601A004832B2629A6C274C01329A648D
:10310000F26A216FC96A9142D4D2099A002A02D088
:10311000110001220A600122DA61CBE74346A400D4
:103120003419A26D1A43A265012FC3D1D4E7B16847
:10313000F46872698C60F4686160311D884651687A
:10314000414524D01168013911609969F26A8A42B7
:1031500000D99A619100104C891889008946A446CB
:10316000CC44614647460D6AA968B560F160A9681C
:103170004F60AF6025001C352900494471616146EC
:103180006546C9690131E961BBE7002493E75460F2
:10319000D8E7C046F403002074030020F0B5D646FB
:1031A00046464F460C000500C0B5160000F078FBFF
:1031B00002212B196433A4001A782C191970A36DFD
:1031C0000133A365012A06D000F06EFB1CBC9046BB
:1031D0009946A246F0BD294B5A6E002A1BD0DA6CE4
:1031E0009168EA61296229009468183161609160F0
:1031F0001A004832AA629A6C214C01329A64EA6A37
:10320000216FC96A9142DFD2002E01D001223260C3
:103210000122DA61D8E7A968EC686A698C60EC6819
:103220006160291D88465168414525D011680139E2
:1032300011609969EA6A8A4200D99A619100104C3A
:103240008918890067188A46396AB9468C46A96088
:1032500089684746E960614689684F60414667462C
:10326000B96027001C3739005144696149464D4611
:10327000C9690131E961C3E75460D7E7F40300206D
:103280007403002070B504000D0000280DD06419EF
:10329000643400F0EFFA23780025022B01D1257069
:1032A000013500F0F3FA280070BD014B1C6FEEE70A
:1032B0007403002070B504000D00160000280BD028
:1032C00000F0D8FAA8002018846D836DB34383659D
:1032D00000F0DCFA200070BD014B1C6FF0E7C04627
:1032E00074030020F0B54546DE4657464E46E0B52D
:1032F000BB4D87B02B681C68002C00D1C8E0DB6890
:103300001C68FFF7F9F9FFF70BFB6B6807009842A1
:1033100000D2D6E06860844200D827E10022E86845
:10332000E11B01F027FDFFF7EFF9002800D1C5E010
:1033300024239A460022E86803A900F073FF0028BE
:10334000D8D0039B0193002BF4DB059F7B69002BF6
:1033500002D0381D00F076FCFFF7E2FA6B68804679
:1033600098420FD343466B60039B092BE2D89D4ADA
:103370009B00D3589F46012293435246A3542000FA
:10338000236A98472B681A68002A00D1E0E0DB68BE
:10339000DC681E68231D18009B4600F053FC534652
:1033A0000422E35C1A42E6D0A36924619A19F64329
:1033B000914662609E420BD34E46236A2000984796
:1033C000A369F64399444A4624616260B342F3D943
:1033D0005946A86800F01EFCD1E75346F85C01236B
:1033E00052460343BB540499BA693F618B187B6012
:1033F000434500D9B0E04446611A8A4239D84107B2
:1034000011D4012398435346F85438003B6A984737
:1034100090E74146CB1A934200D2DCE03B6A380089
:1034200098472300BA699C187C603F61A045F0D2A0
:10343000984501D2A342F1D92868391D00F0EAFB72
:10344000E3E753460122FB5C93435246BB5471E7CA
:1034500053460122FB5C13435246BB544246049B35
:103460003F619A18BB617A6042457AD8002B00D13F
:1034700060E7A868391D00F0CDFB5BE75346FB5CB5
:103480009A0700D49EE0012293435246BB5451E771
:10349000FFF732F9FFF744FA6B680700984210D340
:1034A000AB68E8681A68E11B53425A416F6001F04B
:1034B00061FCFFF729F9002800D039E700F0CEF9C8
:1034C00036E72B681A68002A3BD024229246203A1D
:1034D00093460AE0012293435246A354236A2000F4
:1034E00098472B681A68002A2BD0DB68DC681E68B6
:1034F000231D1800994600F0A5FB53465A46E35C8D
:103500001A42E7D0A3692461F218F643904662603C
:103510009E420BD34646236A20009847A369F64390
:103520009844424624616260B342F3D94946A86890
:1035300000F070FB236A200098472B681A68002A65
:10354000D3D1AA686F602A60AB60FFF7DDF8EFE6C1
:10355000AA68AB602A6005E7414502D9994200D8C4
:103560004DE72868391D00F055FBE3E6FFF7CCF87E
:103570002B68DB68DE68331D1800994600F062FB9B
:103580002422B35C59070DD401218B43B35430007E
:10359000336A9847CCE63C1BA34217D83000336A05
:1035A00098474446B3693661E21890467260974284
:1035B000F1D2A74201D29442F0D94946286800F0DE
:1035C00029FBE4E7380000F081FAB3E64946A86831
:1035D00000F020FBDBE7A868391D00F01BFB14E7B7
:1035E00064040020E44F001070B582B000F042F98E
:1035F000174CE368002B12D000F048F9E368002074
:10360000002B0AD003238022383400931149002371
:10361000114801945200FEF771FC02B070BD260003
:10362000250010363000243500F0D8FA280000F0CC
:10363000D5FA00220C210A202660A56000F064FB68
:10364000E0600028D8D0054901F092FAD4E7C046DE
:103650006404002014500010E53200100C500010DB
:10366000F8B54546DE4657464E46E0B507002820E9
:10367000884616001D0000F085F9041E1BD0242387
:103680000022C25400F0F6F81D4B9946DB68002B6F
:1036900018D000F0FBF84346A3610A9B2760E56160
:1036A0002362201D00F0A6FA002E04D0242204215B
:1036B000A35C0B43A35420003CBC90469946A24611
:1036C000AB46F8BD10334B4418009B4600F086FA19
:1036D00024234B4418009A4600F080FA4B465A4681
:1036E0001A6052460C219A600A20002200F00CFB5E
:1036F0004B46D8600028CCD0024901F039FAC8E71F
:10370000640400200C50001070B5134E1C00F568C6
:1037100084B0002D17D001910292039005290ADC94
:10372000FFF78AFB022810D000230022F06801A9CD
:1037300000F036FB05E000232200280001A900F07C
:10374000BFFC04B070BD0020FBE70023F068089ABE
:1037500001A900F025FBF4E764040020014B986BFD
:103760007047C046640400208069704770B504004B
:103770000D0000F07FF824230422E35C002D05D027
:1037800013432422A35400F081F870BD9343F8E75B
:1037900010B5040000F06EF82423E45C6407E40F25
:1037A00000F074F8200010BD406870470068704752
:1037B00010B5040000F05EF82423E35C01241C40F3
:1037C00000F064F8200010BD10B5040000F052F8BD
:1037D000E46900F05BF8200010BDC04670B50D0034
:1037E000040000F047F8E56100F050F870BDC046F5
:1037F000002382B0019372B6019B002BFCD002B073
:103800007047C0460A4A13681868203080F3098858
:10381000022080F31488BFF36F8F3FBCAE4608BC14
:1038200004BC62B61847C046C046C046C046C04643
:10383000E403002010B58024031F64041C60043BD3
:1038400019600349043B1960143B40381A6010BDED
:10385000F13700107047C0467047C0468022044BC5
:1038600052051A60BFF34F8FBFF36F8F7047C0468A
:1038700004ED00E072B6044A136801331360BFF32D
:103880004F8FBFF36F8F704738020020034A1368D1
:10389000013B1360002B00D162B670473802002054
:1038A000EFF3108072B6704780F310887047C046FF
:1038B000EFF309800E4B1A6820381060F0C04446C0
:1038C0004D4656465F46F0C008B572B6FFF762F83F
:1038D00062B60CBC116808681030F0C8A046A94652
:1038E000B246BB4680F309882038F0C81847C04666
:1038F000E403002010B5FFF7D3FF0400FFF73AF808
:10390000002803D08022034B52051A602000FFF7E5
:10391000CBFF10BD04ED00E00022054B05491A6005
:103920000A60054A0549116007221A607047C046BF
:1039300010E000E018E000E014E000E047E80100DB
:10394000FF220E4B1204196810B50A431A60FF22B9
:103950000024196812060A4382B01A60FFF7DCFFE0
:10396000074B1C60FFF74EFFFFF714F8019472B687
:10397000019B002BFCD0002002B010BD20ED00E028
:1039800038020020F0B5D6464F464646C0B5040082
:10399000FEF7B2FE4A4DAF68002F43D0EB689C465D
:1039A0006346234235D1631E0A3332D820000723F1
:1039B0000830034227D16B699846834229D32C00F3
:1039C0002B6804E01A68002A04D01C001300596810
:1039D0008142F7D3BB421CD01E001A680836226011
:1039E0000A1A102A41D842462869521A6A6182424C
:1039F00000D22A6162460A435A6000221A60AB690B
:103A00000133AB6106E002009A431300083383429E
:103A100023D80026FEF778FE30001CBC904699465D
:103A2000A246F0BD0721274A114218D1264B1100AA
:103A3000D718130007200022083F8743FB1A6A604B
:103A400029607A603A604B600F60802109068C46DD
:103A5000AF602B616B61E960A2E71800ABE7D31D93
:103A60008B43194957181900E4E719184A608A4628
:103A70002A005860100012689245FBD8446801196A
:103A800089465146CA450CD04C68514609198A42AC
:103A90000CD051460A60504501D052460260596828
:103AA000A1E74968824664184460EEE7BA42F0D064
:103AB00051681268894651464C444C600A60EAE7F6
:103AC000A0040020C004002050C30000F8B5002866
:103AD00009D01C4D08384368EA6804001A4202D035
:103AE0000168002900D0F8BD934343600600FEF74B
:103AF00003FE6B6961685B186B612B001A001B6821
:103B00009C42FBD850681718BC4216D070188342EC
:103B100009D03360B24200D01660EB690133EB612B
:103B2000FEF7F2FDDFE7A8688342F2D058681B6811
:103B30008446614471603360ECE7091816005160F7
:103B4000E4E7C046A0040020014B58697047C04616
:103B5000A0040020014B18697047C046A004002053
:103B60007047C046F0B5C64600B50700FEF7C4FD75
:103B7000194B98461B68002B28D042460125002689
:103B8000002491686D425A680134964200D21600B2
:103B9000954200D915001B689942F4D1FEF7B4FD97
:103BA0007E60BD60FC60FFF765FE43465B693B607D
:103BB00043469B697B614346DB69BB6143461B69A6
:103BC0003B61FFF763FE04BC9046F0BD0125002673
:103BD00000246D42E2E7C046A00400200300012259
:103BE00008334360C3600361002352428260036074
:103BF0007047C046002303617047C04643689A6817
:103C00004B608A609A68516099600368086101336B
:103C100003607047030030B50C680833621C0DD098
:103C20001A005B681D68A542FAD94B609960036869
:103C30008A60013351600861036030BD02695368D6
:103C4000F3E7C0460369416882688A605160596839
:103C5000814206D0002202611A68013A1A6018688F
:103C600070475A60F6E7C04670B504000D000028A2
:103C700032D0C36B0020002B20D0216C180C0A0C12
:103C80001DD100282AD1FFF7F5FD216CE36B2268D6
:103C90004B43D0185B1AD318A0606260E3604422E3
:103CA000FF230020A063A3540132A354002D18D198
:103CB0002369002B1ED1FFF7E9FD012070BD00280C
:103CC0000AD1181C89B29BB24B4380B292B24243D4
:103CD0001B0CD3181B0CD6D00020EFE7021C081CCD
:103CE000F0E720001030FFF779FF20002430FFF7C5
:103CF00075FFE0E720001030FEF776FF0028DAD0ED
:103D0000FFF7ACFDD7E7C04670B505000E000028F0
:103D100043D00B0C020C002B31D1331C002A32D1C2
:103D2000300068430300493337D84830FFF72AFE94
:103D3000041E32D00300002E00D048332360E56318
:103D40002664FFF797FD216CE36B22684B43D01884
:103D5000A06000205B1AD3186260E3604422FF2356
:103D6000A0632000A3540132A3541030FFF736FFA4
:103D700020002430FFF732FFFFF788FD0EE0002A15
:103D80000BD11A1C031CB0B2A9B2414398B293B232
:103D90004343090C5B181B0CC2D00024200070BDEB
:103DA000F0B5D64646464F460400C0B5060084B07E
:103DB0009A4601928846FFF75DFDA36BE26B0025F2
:103DC000243693427DD35346022B00D1E3E0019B7E
:103DD000002B00D1FBE0002D00D1D8E0FFF756FD0D
:103DE000FEF78AFCFFF746FD4422A35C5BB2013379
:103DF00001D10023A3544522A35C5BB2013301D15E
:103E00000023A354FFF742FD01A902A8FEF7BCFF5F
:103E1000002800D0DFE0FFF72DFDA36BE26B93429B
:103E200063D0FFF733FDFFF725FD4523E55C6DB259
:103E3000002D05DC13E0013DEBB26DB2002B0ED07E
:103E4000636A002B0BD03000FEF7CEFE0028F2D0C4
:103E5000013DFEF7C7FFEBB26DB2002BF0D1452359
:103E6000FF22E254FFF712FDFFF704FD4423E55C57
:103E7000343B99466DB2A144002D05DC13E0013DB1
:103E8000EBB26DB2002B0ED02369002B0BD048464D
:103E9000FEF7AAFE0028F2D0013DFEF7A3FFEBB229
:103EA0006DB2002BF0D14423FF22E254FFF7EEFC69
:103EB000FEF72AFC0125FFF7DDFCA36BE26B9342C2
:103EC00081D2226CA56B002A00D0CEE00135A5631B
:103ED000636A002B00D0DCE0FFF7D8FC012004B0BF
:103EE0001CBC90469946A246F0BD27001037FFF74C
:103EF000CDFC38000199FEF795FDFFF7BBFC45238B
:103F0000E55C6DB2002D05DC13E0013DEAB26DB257
:103F1000002A0ED0636A002B0BD03000FEF764FE3F
:103F20000028F2D0013DFEF75DFFEAB26DB2002A33
:103F3000F0D14523FF22E254FFF7A8FCFFF79AFCDB
:103F40004423E55C6DB2002D05DC13E0013DEAB2CF
:103F50006DB2002A0ED02369002B0BD03800FEF77B
:103F600043FE0028F2D0013DFEF73CFFEAB26DB2FD
:103F7000002AF0D14423FF22E254FFF787FCFEF72A
:103F8000C3FB002896D1FFF769FC012593E702A83F
:103F9000FEF7EEFE22E7226CA56B002A96D0414682
:103FA000E068FDF735FDE168236C5A42CB1A2168C1
:103FB000E3608B4207D2A3689C466244E2605346AA
:103FC000022B00D082E7002D00D080E77EE7FFF7CC
:103FD0005DFC002083E7FFF74DFC45232600E55CF0
:103FE00024366DB2002D05DC13E0013DEAB26DB25E
:103FF000002A0ED0636A002B0BD03000FEF7F4FDD0
:104000000028F2D0013DFEF7EDFEEAB26DB2002AC3
:10401000F0D14523FF22E254FFF738FCFFF72AFCDA
:1040200044232600E55C10366DB2002D05DC13E05C
:10403000013DEAB26DB2002A0ED02369002B0BD0ED
:104040003000FEF7D1FD0028F2D0013DFEF7CAFE98
:10405000EAB26DB2002AF0D14423FF22E254FFF706
:1040600015FCFEF751FB002039E753464146002B73
:1040700019D16068FDF7CCFC226C63689446A26895
:1040800063446360934200D220E723680135636094
:104090001DE720002430FEF7A7FD002800D11BE714
:1040A000FFF7DCFB18E7E068FDF7B2FCE168236C82
:1040B0005A42CB1A2168E3608B4280D27BE7C0462C
:1040C000F0B54F464646D6460400C0B599460F00A7
:1040D0009046FFF7E5FBA56BE36B06009D421FD3FF
:1040E0004B46022B09D000243000FFF7DDFB2000F7
:1040F0001CBC90469946A246F0BD4523226CE55C67
:10410000A36BA36B6DB29A46002A26D10133A36339
:104110006B1C3AD0452301356DB2E5540124E3E729
:104120004523226CE55CA36BA36B6DB29A46002A13
:10413000ECD04B463900002B3ED16068FDF768FC9F
:10414000226C63689446A26863446360934217D309
:104150002368636053460133D9E73900E068FDF70F
:1041600057FCE168236C5A42CB1A2168E3608B420A
:104170001ED2A3689C466244E2604B46022B17D0D5
:1041800053460133A3636B1CC4D1636A002B01D176
:104190000124A9E720002430FEF726FD0028F7D0EF
:1041A0004346002BF4D001234246012413609BE7D1
:1041B0005346002BABD1A9E7E068FDF729FCE16885
:1041C000236C5A42CB1A2168E3608B42D5D2D0E7E8
:1041D000F8B504000E00FFF763FBA26BE36B05006C
:1041E000002793420AD94521635C01325BB2A26386
:1041F0005A1C08D001335BB2635401272800FFF733
:1042000053FB3800F8BD636A002BF6D02000243041
:10421000FEF7EAFC0028F0D0002EEED001230127A3
:104220003360EBE7F0B5CE464746040080B585B075
:1042300088460192FFF71EFBA56B002D00D023E1FD
:10424000019B002B00D1CBE0260002A8FEF790FDD9
:1042500044272436FFF71AFBFEF74EFAFFF70AFB56
:10426000E35D5BB2013301D10023E3554522A35C3A
:104270005BB2013301D10023A354FFF707FB01A96F
:1042800002A8FEF781FD002855D1FFF7F3FAA36BD2
:10429000002B00D0ACE0FFF7F9FA30000199FEF7EF
:1042A000C1FBFFF7E7FA4523E55C6DB2002D05DCA5
:1042B00013E0013DEAB26DB2002A0ED0636A002B12
:1042C0000BD03000FEF790FC0028F2D0013DFEF745
:1042D00089FDEAB26DB2002AF0D14523FF22E254F3
:1042E000FFF7D4FAFFF7C6FA10239946E55DA1441B
:1042F0006DB2002D05DC13E0013DEAB26DB2002A7B
:104300000ED02369002B0BD04846FEF76DFC002829
:10431000F2D0013DFEF766FDEAB26DB2002AF0D19F
:10432000FF23E355FFF7B2FAFEF7EEF900284ED16E
:10433000FFF794FA4BE0FFF79DFA4523E55C6DB279
:10434000002D05DC13E0013DEAB26DB2002A0ED06B
:10435000636A002B0BD03000FEF746FC0028F2D039
:10436000013DFEF73FFDEAB26DB2002AF0D14523D0
:10437000FF22E254FFF78AFAFFF77CFA10239946EE
:10438000E55DA1446DB2002D05DC13E0013DEAB20C
:104390006DB2002A0ED02369002B0BD04846FEF7E1
:1043A00023FC0028F2D0013DFEF71CFDEAB26DB2FD
:1043B000002AF0D1FF23E355FFF768FAFEF7A4F9CE
:1043C000FFF758FAA36B002B0AD0FFF75FFAFFF74D
:1043D00051FAA56B002D57D1019B002B00D039E776
:1043E000FFF754FA002005B00CBC90469946F0BD8A
:1043F000FFF74CFAFFF73EFA4523E55C6DB2002D5E
:1044000005DC13E0013DEAB26DB2002A0ED0636A0A
:10441000002B0BD03000FEF7E7FB0028F2D0013D67
:10442000FEF7E0FCEAB26DB2002AF0D14523FF228C
:10443000E254FFF72BFAFFF71DFA10239946E55DCA
:10444000A1446DB2002D05DC13E0013DEAB26DB26E
:10445000002A0ED02369002B0BD04846FEF7C4FB80
:104460000028F2D0013DFEF7BDFCEAB26DB2002A91
:10447000F0D1FF23E355FFF709FAFEF745F9FFF7FF
:10448000F9F9A56B002DA7D0226C002A08D0E368AB
:104490009918A368E16099420BD24046FDF7B8FA3B
:1044A000013DA5632369002B06D1FFF7EFF9012039
:1044B00099E72168E160F0E720001030FEF794FBF7
:1044C0000028F2D0FFF7CAF9EFE7C046F0B5C646BC
:1044D000040000B584B00191FFF7CCF9A36B002B69
:1044E00000D022E1019B002B00D1CBE0260002A8E6
:1044F000FEF73EFC44272436FFF7C8F9FEF7FCF828
:10450000FFF7B8F9E35D5BB2013301D10023E35556
:104510004522A35C5BB2013301D10023A354FFF712
:10452000B5F901A902A8FEF72FFC002855D1FFF725
:10453000A1F9A36B002B00D0ABE0FFF7A7F9300087
:104540000199FEF76FFAFFF795F94523E55C6DB227
:10455000002D05DC13E0013DEAB26DB2002A0ED059
:10456000636A002B0BD03000FEF73EFB0028F2D030
:10457000013DFEF737FCEAB26DB2002AF0D14523C7
:10458000FF22E254FFF782F9FFF774F9E55D6DB29F
:10459000002D17DD10239846A04404E0013DEAB247
:1045A0006DB2002A0ED02369002B0BD04046FEF7D7
:1045B0001BFB0028F2D0013DFEF714FCEAB26DB2FD
:1045C000002AF0D1FF23E355FFF760F9FEF79CF8CE
:1045D00000284ED1FFF742F94BE0FFF74BF9452396
:1045E000E55C6DB2002D05DC13E0013DEAB26DB271
:1045F000002A0ED0636A002B0BD03000FEF7F4FACD
:104600000028F2D0013DFEF7EDFBEAB26DB2002AC0
:10461000F0D14523FF22E254FFF738F9FFF72AF9DA
:10462000E55D6DB2002D17DD10239846A04404E02F
:10463000013DEAB26DB2002A0ED02369002B0BD0E7
:104640004046FEF7D1FA0028F2D0013DFEF7CAFB42
:10465000EAB26DB2002AF0D1FF23E355FFF716F955
:10466000FEF752F8FFF706F9A36B002B0AD0FFF70D
:104670000DF9FFF7FFF8A36B002B56D1019B002B20
:1046800000D039E7FFF702F9002004B004BC9046DF
:10469000F0BDFFF7FBF8FFF7EDF84523E55C6DB2E1
:1046A000002D05DC13E0013DEAB26DB2002A0ED008
:1046B000636A002B0BD03000FEF796FA0028F2D088
:1046C000013DFEF78FFBEAB26DB2002AF0D145231F
:1046D000FF22E254FFF7DAF8FFF7CCF8E55D6DB2A0
:1046E000002D17DD10239846A04404E0013DEAB2F6
:1046F0006DB2002A0ED02369002B0BD04046FEF786
:1047000073FA0028F2D0013DFEF76CFBEAB26DB2FD
:10471000002AF0D1FF23E355FFF7B8F8FDF7F4FFC7
:10472000FFF7A8F8A36B002BA8D0013BA363236974
:10473000002B03D1FFF7AAF80120A6E720001030D4
:10474000FEF752FA0028F5D0FFF788F8F2E7C046E6
:10475000F0B5CE464746040080B585B08846019244
:10476000FFF788F8A36B002B00D01FE1019B002B03
:1047700000D1CBE0260002A8FEF7FAFA442724363F
:10478000FFF784F8FDF7B8FFFFF774F8E35D5BB25D
:10479000013301D10023E3554522A35C5BB2013311
:1047A00001D10023A354FFF771F801A902A8FEF775
:1047B000EBFA002855D1FFF75DF8A36B002B00D072
:1047C000ACE0FFF763F830000199FEF72BF9FFF733
:1047D00051F84523E55C6DB2002D05DC13E0013D89
:1047E000EAB26DB2002A0ED0636A002B0BD0300003
:1047F000FEF7FAF90028F2D0013DFEF7F3FAEAB22B
:104800006DB2002AF0D14523FF22E254FFF73EF8B3
:10481000FFF730F810239946E55DA1446DB2002DF5
:1048200005DC13E0013DEAB26DB2002A0ED0236927
:10483000002B0BD04846FEF7D7F90028F2D0013DF7
:10484000FEF7D0FAEAB26DB2002AF0D1FF23E355A9
:10485000FFF71CF8FDF758FF00284ED1FEF7FEFFCA
:104860004BE0FFF707F84523E55C6DB2002D05DC52
:1048700013E0013DEAB26DB2002A0ED0636A002B4C
:104880000BD03000FEF7B0F90028F2D0013DFEF762
:10489000A9FAEAB26DB2002AF0D14523FF22E25410
:1048A000FEF7F4FFFEF7E6FF10239946E55DA1440D
:1048B0006DB2002D05DC13E0013DEAB26DB2002AB5
:1048C0000ED02369002B0BD04846FEF78DF9002847
:1048D000F2D0013DFEF786FAEAB26DB2002AF0D1BD
:1048E000FF23E355FEF7D2FFFDF70EFFFEF7C2FFF1
:1048F000A36B002B0AD0FEF7C9FFFEF7BBFFA36B2B
:10490000002B53D1019B002B00D039E7FEF7BEFFEF
:10491000002005B00CBC90469946F0BDFEF7B6FFEE
:10492000FEF7A8FF4523E55C6DB2002D05DC13E022
:10493000013DEAB26DB2002A0ED0636A002B0BD0A3
:104940003000FEF751F90028F2D0013DFEF74AFA97
:10495000EAB26DB2002AF0D14523FF22E254FEF7FD
:1049600095FFFEF787FF10239946E55DA1446DB2E0
:10497000002D05DC13E0013DEAB26DB2002A0ED035
:104980002369002B0BD04846FEF72EF90028F2D001
:10499000013DFEF727FAEAB26DB2002AF0D1FF23FB
:1049A000E355FEF773FFFDF7AFFEA6E7226CE5685F
:1049B000002A07D0A368A918E16099420AD24046AC
:1049C000FDF726F8636AE560002B06D1FEF75EFF6F
:1049D00001209EE72168E160F1E720002430FEF726
:1049E00003F90028F2D0FEF739FFEFE7F8B5CE461D
:1049F0004746040080B589469046FEF751FFA66BF6
:104A000005000027002E07D12800FEF74DFF3800D3
:104A10000CBC90469946F8BD4423226CE75C7FB2FB
:104A2000002A0AD0E3689918A368E160994201D38B
:104A30002168E1604846FCF7EBFF013EA6637B1C62
:104A400005D0442301377FB2E7540127DCE723690F
:104A5000002BFAD020001030FEF7C6F80028F4D062
:104A60004346002BF1D00123424601271360CBE7D8
:104A7000F8B504000F00FEF713FFA36B0500002636
:104A8000002B04D12800FEF70FFF3000F8BD226C88
:104A9000E668002A09D0A368B118E160994201D301
:104AA0002168E1603800FCF7B3FFE6600126E9E722
:104AB00010B50400FEF7DEFEA46BFEF7E7FE200053
:104AC00010BDC04610B50400FEF7D4FEA36BE46B26
:104AD000E41AFEF7DBFE200010BDC046806B704775
:104AE0001D4B10B55A6890421DD0DA68904221D013
:104AF0005A69904220D0DA6990421FD05A6A904297
:104B00001ED0DA6A90421DD05A6B90421CD0DA6BEC
:104B100090421BD05A6C90421AD0DA6C904219D055
:104B2000FEF7D4FF10BD00220021D20099509B183F
:104B30005960F5E70122F7E70222F5E70322F3E7E0
:104B40000422F1E70522EFE70622EDE70722EBE773
:104B50000822E9E70922E7E7C4CA0020806B434244
:104B600058417047836BC06BC01A4342584170472D
:104B700070B500290FD000260023424CDA00A5189A
:104B80006D68854200D16FE0002E05D001330A2BFD
:104B9000F4D13160706070BDA558002D61D05D1CEE
:104BA000092BF8D0EA00A6187668B0425CD0A65867
:104BB000002E5DD09D1C082BEDD0EA00A61876686B
:104BC000B04251D0A658002E52D0DD1C072BE2D0A7
:104BD000EA00A6187668864246D0A658002E47D02E
:104BE0001D1D062BD7D0EA00A6187668B0423BD030
:104BF000A658002E3CD05D1D052BCCD0EA00A6188F
:104C00007668B04230D0A658002E31D09A1D042BC1
:104C1000C1D0D50066197668B04224D06559002D00
:104C200029D0DD1D032BB6D0EA00A6187668B04265
:104C30001AD0A658002E1BD00135022BABD0EA00AB
:104C4000A6187668B0420FD0A658002E10D0012BBF
:104C5000A1D0E36C984212D0A36C002B9BD1092306
:104C60004822A61892E7D200A6183160706092E739
:104C70002B00A6188AE71300D200A61886E7482260
:104C8000A618F2E7C4CA00201B4A030051688842F4
:104C90001CD0D16888421DD0516988421CD0D1698E
:104CA00088421BD0516A88421AD0D16A884219D0F2
:104CB000516B884218D0D16B884217D0516C884212
:104CC00016D0D16C0020994214D070470023DB002D
:104CD000D058FAE70123FAE70223F8E70323F6E7BF
:104CE0000423F4E70523F2E70623F0E70723EEE7C2
:104CF0000823ECE70923EAE7C4CA00201C4B5A68E2
:104D000090421BD0DA6890421FD05A6990421ED060
:104D1000DA6990421DD05A6A90421CD0DA6A9042F9
:104D20001BD05A6B90421AD0DA6B904219D05A6C51
:104D3000904218D0DA6C824217D0704700220021CE
:104D4000D20099509B185960F7E70122F7E7022239
:104D5000F5E70322F3E70422F1E70522EFE7062255
:104D6000EDE70722EBE70822E9E70922E7E7C0467B
:104D7000C4CA002070B5040016000D00FEF77AFDCD
:104D80004422A35C5BB2013301D10023A35445222A
:104D9000A35C5BB2013301D10023A354FEF776FD7F
:104DA000A36B002B46D0FEF765FD4523E55C6DB295
:104DB000002D16DD2600243604E0013DEBB26DB275
:104DC000002B0ED0636A002B0BD03000FDF70CFFD8
:104DD0000028F2D0013DFEF705F8EBB26DB2002BD2
:104DE000F0D14523FF22E254FEF750FDFEF742FDCD
:104DF0004423E55C6DB2002D16DD2600103604E07C
:104E0000013DEBB26DB2002B0ED02369002B0BD00D
:104E10003000FDF7E9FE0028F2D0013DFDF7E2FF8A
:104E2000EBB26DB2002BF0D14423FF22E254FEF727
:104E30002DFD70BD2000320029002430FDF782FED8
:104E4000B1E7C04610B5830727D00378002B26D0E2
:104E50000300032102E01A78002A1CD001330B4220
:104E6000F9D119680F4A104C8A188A4322420FD18F
:104E7000043319680B4A8A188A43224208D1043342
:104E80001968084A8A188A432242F1D000E00133A7
:104E90001A78002AFBD1181A10BD0300E1E70020A0
:104EA000FAE7C046FFFEFEFE80808080F8B5C0466F
:104EB00001B40248844601BC604700BF5501002090
:104EC00001B40248844601BC604700BF7D01002058
:104ED00001B40248844601BC604700BF0D010020B8
:104EE00001B40248844601BC604700BFC1000020F5
:104EF000477265656E204C4544000000486172644D
:104F00007761726520616C61726D20256420616C2F
:104F1000726561647920636C61696D65640000008D
:104F20000A2A2A2A2050414E4943202A2A2A0A00C6
:104F30000A00000048617264206173736572740036
:104F400052656C6561736500626F6F74325F7732B2
:104F50003571303830000000312E312E3200000023
:104F60007069636F00000000626C696E6B00000086
:104F70004A756E2020352032303231000600525002
:104F8000BBFF3CB6604F001006005250E182887FA4
:104F9000484F001006005250D3F07542404F0010A9
:104FA0000D0A00005541525420737464696E00006C
:104FB00055415254207374646F75740055415254B6
:104FC00020737464696E202F207374646F7574008D
:104FD0000600525053B4F4A1BC4F001008005250C8
:104FE0009200000034330010DA330010DA3300107E
:104FF00042340010503400107C340010DA330010BA
:10500000DA3300104234001050340010546D7251E5
:0C50100000000000546D72205376630015
:10501C00B4020010A80200109C0200107C4F00107B
:10502C0090020010884F0010944F0010D04F0010C9
:04503C00DC4F001035
:1050400010B502680024EFF3108172B61368002BCC
:10505000FCD0BFF35F8F03797F2B0BD80368BFF3BE
:105060005F8F1C6081F3108820BF0268EFF310810E
:1050700072B6EBE7D0231B061B6803710368BFF30E
:105080005F8F00221A6081F3108810BD030010B5F5
:105090000068EFF3108472B60268002AFCD0BFF3F8
:1050A0005F8F04229A56002A0BDB00290FD00020C4
:1050B0000A601B68BFF35F8F00221A6084F31088B8
:1050C00010BDD0221206126801201A71F1E70020EB
:1050D000EFE7C0460268EFF3108172B61368002B49
:1050E000FCD0BFF35F8FFF23037140BF0368BFF3A2
:1050F0005F8F00221A6081F3108870477047C046A6
:10510000100000009C010020000000005802002058
:1051100048C80020000000000000000058C800201F
:10512000000000000000000010000000000000006F
:10513000000001000000000000000000000002006C
:10514000000000000000000000000300000000005C
:10515000000000000000FF000000000000B54868EB
:1051600001318E460047704609380149884700BD25
:105170009D1600100000000000000000000000006C
:10518000503300004C330000543300005233000011
:105190004D5300004D4300005334000043340000E1
:1051A0003D1C001000000000891C001000000000E1
:1051B0000001000003000000AAAAAAAA0000000043
:1051C00000000000F5190010CD1700108D18001018
:0851D0006519001039030010FD
:04000005100001E9FD
:00000001FF
